{
  "contractName": "DonationRequest",
  "abi": [
    {
      "inputs": [],
      "payable": false,
      "stateMutability": "nonpayable",
      "type": "constructor"
    },
    {
      "payable": true,
      "stateMutability": "payable",
      "type": "fallback"
    },
    {
      "constant": true,
      "inputs": [],
      "name": "donationsReceived",
      "outputs": [
        {
          "internalType": "bool",
          "name": "",
          "type": "bool"
        }
      ],
      "payable": false,
      "stateMutability": "view",
      "type": "function"
    },
    {
      "constant": true,
      "inputs": [],
      "name": "ethConverter",
      "outputs": [
        {
          "internalType": "uint256",
          "name": "",
          "type": "uint256"
        }
      ],
      "payable": false,
      "stateMutability": "view",
      "type": "function"
    },
    {
      "constant": true,
      "inputs": [],
      "name": "receiverName",
      "outputs": [
        {
          "internalType": "string",
          "name": "",
          "type": "string"
        }
      ],
      "payable": false,
      "stateMutability": "view",
      "type": "function"
    },
    {
      "constant": true,
      "inputs": [],
      "name": "totalDonations",
      "outputs": [
        {
          "internalType": "uint256",
          "name": "",
          "type": "uint256"
        }
      ],
      "payable": false,
      "stateMutability": "view",
      "type": "function"
    },
    {
      "constant": false,
      "inputs": [
        {
          "internalType": "address payable",
          "name": "_receiverAddress",
          "type": "address"
        },
        {
          "internalType": "string",
          "name": "_receiverName",
          "type": "string"
        }
      ],
      "name": "setReceiver",
      "outputs": [],
      "payable": false,
      "stateMutability": "nonpayable",
      "type": "function"
    },
    {
      "constant": true,
      "inputs": [],
      "name": "addressIsReceiver",
      "outputs": [
        {
          "internalType": "bool",
          "name": "",
          "type": "bool"
        }
      ],
      "payable": false,
      "stateMutability": "view",
      "type": "function"
    },
    {
      "constant": false,
      "inputs": [],
      "name": "donate",
      "outputs": [],
      "payable": true,
      "stateMutability": "payable",
      "type": "function"
    },
    {
      "constant": false,
      "inputs": [],
      "name": "receiveDonations",
      "outputs": [],
      "payable": true,
      "stateMutability": "payable",
      "type": "function"
    }
  ],
  "bytecode": "0x608060405234801561001057600080fd5b50336000806101000a81548173ffffffffffffffffffffffffffffffffffffffff021916908373ffffffffffffffffffffffffffffffffffffffff1602179055506040518060400160405280601081526020017f436f6e74726163742043726561746f72000000000000000000000000000000008152506001908051906020019061009c9291906100c5565b5060006002819055506000600360006101000a81548160ff02191690831515021790555061016a565b828054600181600116156101000203166002900490600052602060002090601f016020900481019282601f1061010657805160ff1916838001178555610134565b82800160010185558215610134579182015b82811115610133578251825591602001919060010190610118565b5b5090506101419190610145565b5090565b61016791905b8082111561016357600081600090555060010161014b565b5090565b90565b61086b806101796000396000f3fe60806040526004361061007b5760003560e01c8063de2ed8931161004e578063de2ed8931461024f578063df1c526f1461027a578063ed88c68e14610284578063f676f43d1461028e5761007b565b80632259a96f1461007d578063778c3e53146101655780637b03d450146101f55780638dd7f0fc14610224575b005b34801561008957600080fd5b50610163600480360360408110156100a057600080fd5b81019080803573ffffffffffffffffffffffffffffffffffffffff169060200190929190803590602001906401000000008111156100dd57600080fd5b8201836020820111156100ef57600080fd5b8035906020019184600183028401116401000000008311171561011157600080fd5b91908080601f016020809104026020016040519081016040528093929190818152602001838380828437600081840152601f19601f8201169050808301925050505050505091929192905050506102bd565b005b34801561017157600080fd5b5061017a610423565b6040518080602001828103825283818151815260200191508051906020019080838360005b838110156101ba57808201518184015260208101905061019f565b50505050905090810190601f1680156101e75780820380516001836020036101000a031916815260200191505b509250505060405180910390f35b34801561020157600080fd5b5061020a6104c1565b604051808215151515815260200191505060405180910390f35b34801561023057600080fd5b50610239610518565b6040518082815260200191505060405180910390f35b34801561025b57600080fd5b50610264610524565b6040518082815260200191505060405180910390f35b61028261052a565b005b61028c610621565b005b34801561029a57600080fd5b506102a36106ea565b604051808215151515815260200191505060405180910390f35b600360009054906101000a900460ff1615610323576040517f08c379a000000000000000000000000000000000000000000000000000000000815260040180806020018281038252604f8152602001806107e8604f913960600191505060405180910390fd5b6000809054906101000a900473ffffffffffffffffffffffffffffffffffffffff1673ffffffffffffffffffffffffffffffffffffffff163373ffffffffffffffffffffffffffffffffffffffff16146103c8576040517f08c379a00000000000000000000000000000000000000000000000000000000081526004018080602001828103825260458152602001806107a36045913960600191505060405180910390fd5b816000806101000a81548173ffffffffffffffffffffffffffffffffffffffff021916908373ffffffffffffffffffffffffffffffffffffffff160217905550806001908051906020019061041e9291906106fd565b505050565b60018054600181600116156101000203166002900480601f0160208091040260200160405190810160405280929190818152602001828054600181600116156101000203166002900480156104b95780601f1061048e576101008083540402835291602001916104b9565b820191906000526020600020905b81548152906001019060200180831161049c57829003601f168201915b505050505081565b60008060009054906101000a900473ffffffffffffffffffffffffffffffffffffffff1673ffffffffffffffffffffffffffffffffffffffff163373ffffffffffffffffffffffffffffffffffffffff1614905090565b670de0b6b3a764000081565b60025481565b600360009054906101000a900460ff1615610590576040517f08c379a000000000000000000000000000000000000000000000000000000000815260040180806020018281038252604f8152602001806107e8604f913960600191505060405180910390fd5b6000809054906101000a900473ffffffffffffffffffffffffffffffffffffffff1673ffffffffffffffffffffffffffffffffffffffff166108fc670de0b6b3a7640000600254029081150290604051600060405180830381858888f19350505050158015610603573d6000803e3d6000fd5b506001600360006101000a81548160ff021916908315150217905550565b600360009054906101000a900460ff1615610687576040517f08c379a000000000000000000000000000000000000000000000000000000000815260040180806020018281038252604f8152602001806107e8604f913960600191505060405180910390fd5b3073ffffffffffffffffffffffffffffffffffffffff166108fc670de0b6b3a764000034029081150290604051600060405180830381858888f193505050501580156106d7573d6000803e3d6000fd5b5034600260008282540192505081905550565b600360009054906101000a900460ff1681565b828054600181600116156101000203166002900490600052602060002090601f016020900481019282601f1061073e57805160ff191683800117855561076c565b8280016001018555821561076c579182015b8281111561076b578251825591602001919060010190610750565b5b509050610779919061077d565b5090565b61079f91905b8082111561079b576000816000905550600101610783565b5090565b9056fe4572726f723a20596f75206d757374206265207468652063757272656e7420726563656976657220746f207365742074686520726563656976696e6720616464726573732e4572726f723a2054686520646f6e6174696f6e20636f6e747261637420697320696e6163746976652e20506c65617365206465706c6f792061206e657720646f6e6174696f6e20726571756573742ea265627a7a723158200c26a598e197846fb8b1b049bf6b5cc7fa6e18b93f60163b2bde90f50a318bbf64736f6c63430005100032",
  "source": "/**\r\n * This smart contract allows users to donate ether through donate(). \r\n * The receiving address of the donations is set to message sender\r\n * when the contract is deployed. Only the receiving address can\r\n * choose to accept donations through receiveDonations() or change\r\n * the current receivng address. Once donations are received, the\r\n * contract is made inactive.\r\n*/\r\n\r\npragma solidity ^0.5.16;\r\n\r\ncontract DonationRequest {\r\n    uint constant public ethConverter = 1000000000000000000;\r\n    address payable private receiverAddress;\r\n    string public receiverName;\r\n    uint public totalDonations;\r\n    bool public donationsReceived;\r\n\r\n    constructor() public {\r\n        receiverAddress = msg.sender;\r\n        receiverName = \"Contract Creator\";\r\n        totalDonations = 0;\r\n        donationsReceived = false;\r\n    }\r\n\r\n    modifier active {\r\n        require(!donationsReceived, \"Error: The donation contract is inactive. Please deploy a new donation request.\");\r\n        _;\r\n    }\r\n\r\n    function () external payable {}\r\n\r\n    /**\r\n     * This function updates the receiverAddress.\r\n    */\r\n    function setReceiver(address payable  _receiverAddress, string memory _receiverName) public active {\r\n        require(msg.sender == receiverAddress, \"Error: You must be the current receiver to set the receiving address.\");\r\n        receiverAddress = _receiverAddress;\r\n        receiverName = _receiverName;\r\n    }\r\n    \r\n    /**\r\n     * This function returns true if the message sender is the address of the receiver\r\n     * and false otherwise.\r\n    */\r\n    function addressIsReceiver() public view returns (bool) {\r\n        return(msg.sender == receiverAddress);\r\n    }\r\n    \r\n    /**\r\n     * This function allows users to donate ether to the contract.\r\n    */\r\n    function donate() public payable active {\r\n        address(this).transfer(msg.value * ethConverter);\r\n        totalDonations += msg.value;\r\n    }\r\n    \r\n    /**\r\n     * This function lets the receiverAddress acquire the donations stored in the smart contract.\r\n    */\r\n    function receiveDonations() public payable active {\r\n        receiverAddress.transfer(totalDonations * ethConverter);\r\n        donationsReceived = true;\r\n    }\r\n}",
  "sourcePath": "C:/Users/rossb/Documents/EthDonator/Ethereum-Donator/Donator/src/contracts/DonationRequest.sol",
  "compiler": {
    "name": "solc",
    "version": "0.5.16+commit.9c3226ce.Emscripten.clang"
  },
  "schemaVersion": "3.4.1",
  "updatedAt": "2021-07-05T15:53:58.437Z",
  "networkType": "ethereum",
  "devdoc": {
    "methods": {}
  },
  "userdoc": {
    "methods": {
      "addressIsReceiver()": {
        "notice": "This function returns true if the message sender is the address of the receiver and false otherwise."
      },
      "donate()": {
        "notice": "This function allows users to donate ether to the contract."
      },
      "receiveDonations()": {
        "notice": "This function lets the receiverAddress acquire the donations stored in the smart contract."
      },
      "setReceiver(address,string)": {
        "notice": "This function updates the receiverAddress."
      }
    }
  }
}