{
  "contractName": "DonationRequest",
  "abi": [
    {
      "inputs": [],
      "payable": false,
      "stateMutability": "nonpayable",
      "type": "constructor"
    },
    {
      "payable": true,
      "stateMutability": "payable",
      "type": "fallback"
    },
    {
      "constant": true,
      "inputs": [],
      "name": "donationsReceived",
      "outputs": [
        {
          "internalType": "bool",
          "name": "",
          "type": "bool"
        }
      ],
      "payable": false,
      "stateMutability": "view",
      "type": "function"
    },
    {
      "constant": true,
      "inputs": [],
      "name": "ethConverter",
      "outputs": [
        {
          "internalType": "uint256",
          "name": "",
          "type": "uint256"
        }
      ],
      "payable": false,
      "stateMutability": "view",
      "type": "function"
    },
    {
      "constant": true,
      "inputs": [],
      "name": "isReceiver",
      "outputs": [
        {
          "internalType": "bool",
          "name": "",
          "type": "bool"
        }
      ],
      "payable": false,
      "stateMutability": "view",
      "type": "function"
    },
    {
      "constant": true,
      "inputs": [],
      "name": "receiverName",
      "outputs": [
        {
          "internalType": "string",
          "name": "",
          "type": "string"
        }
      ],
      "payable": false,
      "stateMutability": "view",
      "type": "function"
    },
    {
      "constant": true,
      "inputs": [],
      "name": "totalDonations",
      "outputs": [
        {
          "internalType": "uint256",
          "name": "",
          "type": "uint256"
        }
      ],
      "payable": false,
      "stateMutability": "view",
      "type": "function"
    },
    {
      "constant": false,
      "inputs": [
        {
          "internalType": "address payable",
          "name": "_receiverAddress",
          "type": "address"
        },
        {
          "internalType": "string",
          "name": "_receiverName",
          "type": "string"
        }
      ],
      "name": "setReceiver",
      "outputs": [],
      "payable": false,
      "stateMutability": "nonpayable",
      "type": "function"
    },
    {
      "constant": true,
      "inputs": [],
      "name": "addressIsReceiver",
      "outputs": [
        {
          "internalType": "bool",
          "name": "",
          "type": "bool"
        }
      ],
      "payable": false,
      "stateMutability": "view",
      "type": "function"
    },
    {
      "constant": false,
      "inputs": [],
      "name": "donate",
      "outputs": [],
      "payable": true,
      "stateMutability": "payable",
      "type": "function"
    },
    {
      "constant": false,
      "inputs": [],
      "name": "receiveDonations",
      "outputs": [],
      "payable": true,
      "stateMutability": "payable",
      "type": "function"
    }
  ],
  "bytecode": "0x608060405234801561001057600080fd5b50336000806101000a81548173ffffffffffffffffffffffffffffffffffffffff021916908373ffffffffffffffffffffffffffffffffffffffff1602179055506040518060400160405280601081526020017f436f6e74726163742043726561746f72000000000000000000000000000000008152506001908051906020019061009c9291906100c5565b5060006002819055506000600360006101000a81548160ff02191690831515021790555061016a565b828054600181600116156101000203166002900490600052602060002090601f016020900481019282601f1061010657805160ff1916838001178555610134565b82800160010185558215610134579182015b82811115610133578251825591602001919060010190610118565b5b5090506101419190610145565b5090565b61016791905b8082111561016357600081600090555060010161014b565b5090565b90565b6107eb806101796000396000f3fe6080604052600436106100865760003560e01c80638dd7f0fc116100595780638dd7f0fc1461025e578063de2ed89314610289578063df1c526f146102b4578063ed88c68e146102be578063f676f43d146102c857610086565b80632259a96f1461008857806372ee7f6e14610170578063778c3e531461019f5780637b03d4501461022f575b005b34801561009457600080fd5b5061016e600480360360408110156100ab57600080fd5b81019080803573ffffffffffffffffffffffffffffffffffffffff169060200190929190803590602001906401000000008111156100e857600080fd5b8201836020820111156100fa57600080fd5b8035906020019184600183028401116401000000008311171561011c57600080fd5b91908080601f016020809104026020016040519081016040528093929190818152602001838380828437600081840152601f19601f8201169050808301925050505050505091929192905050506102f7565b005b34801561017c57600080fd5b5061018561045c565b604051808215151515815260200191505060405180910390f35b3480156101ab57600080fd5b506101b461046f565b6040518080602001828103825283818151815260200191508051906020019080838360005b838110156101f45780820151818401526020810190506101d9565b50505050905090810190601f1680156102215780820380516001836020036101000a031916815260200191505b509250505060405180910390f35b34801561023b57600080fd5b5061024461050d565b604051808215151515815260200191505060405180910390f35b34801561026a57600080fd5b50610273610564565b6040518082815260200191505060405180910390f35b34801561029557600080fd5b5061029e610570565b6040518082815260200191505060405180910390f35b6102bc610576565b005b6102c6610607565b005b3480156102d457600080fd5b506102dd61066a565b604051808215151515815260200191505060405180910390f35b600360009054906101000a900460ff1661035c576040517f08c379a000000000000000000000000000000000000000000000000000000000815260040180806020018281038252604f815260200180610768604f913960600191505060405180910390fd5b6000809054906101000a900473ffffffffffffffffffffffffffffffffffffffff1673ffffffffffffffffffffffffffffffffffffffff163373ffffffffffffffffffffffffffffffffffffffff1614610401576040517f08c379a00000000000000000000000000000000000000000000000000000000081526004018080602001828103825260458152602001806107236045913960600191505060405180910390fd5b816000806101000a81548173ffffffffffffffffffffffffffffffffffffffff021916908373ffffffffffffffffffffffffffffffffffffffff160217905550806001908051906020019061045792919061067d565b505050565b600060149054906101000a900460ff1681565b60018054600181600116156101000203166002900480601f0160208091040260200160405190810160405280929190818152602001828054600181600116156101000203166002900480156105055780601f106104da57610100808354040283529160200191610505565b820191906000526020600020905b8154815290600101906020018083116104e857829003601f168201915b505050505081565b60008060009054906101000a900473ffffffffffffffffffffffffffffffffffffffff1673ffffffffffffffffffffffffffffffffffffffff163373ffffffffffffffffffffffffffffffffffffffff1614905090565b670de0b6b3a764000081565b60025481565b6000809054906101000a900473ffffffffffffffffffffffffffffffffffffffff1673ffffffffffffffffffffffffffffffffffffffff166108fc670de0b6b3a7640000600254029081150290604051600060405180830381858888f193505050501580156105e9573d6000803e3d6000fd5b506001600360006101000a81548160ff021916908315150217905550565b3073ffffffffffffffffffffffffffffffffffffffff166108fc670de0b6b3a764000034029081150290604051600060405180830381858888f19350505050158015610657573d6000803e3d6000fd5b5034600260008282540192505081905550565b600360009054906101000a900460ff1681565b828054600181600116156101000203166002900490600052602060002090601f016020900481019282601f106106be57805160ff19168380011785556106ec565b828001600101855582156106ec579182015b828111156106eb5782518255916020019190600101906106d0565b5b5090506106f991906106fd565b5090565b61071f91905b8082111561071b576000816000905550600101610703565b5090565b9056fe4572726f723a20596f75206d757374206265207468652063757272656e7420726563656976657220746f207365742074686520726563656976696e6720616464726573732e4572726f723a2054686520646f6e6174696f6e20636f6e747261637420697320696e6163746976652e20506c65617365206465706c6f792061206e657720646f6e6174696f6e20726571756573742ea265627a7a72315820c1e74be6c54056d6aed02eaa8538b1744e546fcc0f0f978478230064dadd397064736f6c63430005100032",
  "source": "/**\r\n * This smart contract allows users to donate ether through donate(). \r\n * The receiving address of the donations is set to message sender\r\n * when the contract is deployed. Only the receiving address can\r\n * choose to accept donations through receiveDonations() or change\r\n * the current receivng address. Once donations are received, the\r\n * contract is made inactive.\r\n*/\r\n\r\npragma solidity ^0.5.16;\r\n\r\ncontract DonationRequest {\r\n    uint constant public ethConverter = 1000000000000000000;\r\n    address payable private receiverAddress;\r\n    bool public isReceiver;\r\n    string public receiverName;\r\n    uint public totalDonations;\r\n    bool public donationsReceived;\r\n\r\n    constructor() public {\r\n        receiverAddress = msg.sender;\r\n        receiverName = \"Contract Creator\";\r\n        totalDonations = 0;\r\n        donationsReceived = false;\r\n    }\r\n\r\n    function () external payable {}\r\n\r\n    /**\r\n     * This function updates the receiverAddress.\r\n    */\r\n    function setReceiver(address payable  _receiverAddress, string memory _receiverName) public {\r\n        require(donationsReceived, \"Error: The donation contract is inactive. Please deploy a new donation request.\");\r\n        require(msg.sender == receiverAddress, \"Error: You must be the current receiver to set the receiving address.\");\r\n        receiverAddress = _receiverAddress;\r\n        receiverName = _receiverName;\r\n    }\r\n    \r\n    /**\r\n     * This function returns true if the message sender is the address of the receiver\r\n     * and false otherwise.\r\n    */\r\n    function addressIsReceiver() public view returns (bool) {\r\n        return(msg.sender == receiverAddress);\r\n    }\r\n    \r\n    /**\r\n     * This function allows users to donate ether to the contract.\r\n    */\r\n    function donate() public payable {\r\n        address(this).transfer(msg.value * ethConverter);\r\n        totalDonations += msg.value;\r\n    }\r\n    \r\n    /**\r\n     * This function lets the receiverAddress acquire the donations stored in the smart contract.\r\n    */\r\n    function receiveDonations() public payable {\r\n        receiverAddress.transfer(totalDonations * ethConverter);\r\n        donationsReceived = true;\r\n    }\r\n}",
  "sourcePath": "C:/Users/rossb/Documents/EthDonator/Ethereum-Donator/Donator/src/contracts/DonationRequest.sol",
  "compiler": {
    "name": "solc",
    "version": "0.5.16+commit.9c3226ce.Emscripten.clang"
  },
  "schemaVersion": "3.4.1",
  "updatedAt": "2021-07-05T15:01:55.520Z",
  "networkType": "ethereum",
  "devdoc": {
    "methods": {}
  },
  "userdoc": {
    "methods": {
      "addressIsReceiver()": {
        "notice": "This function returns true if the message sender is the address of the receiver and false otherwise."
      },
      "donate()": {
        "notice": "This function allows users to donate ether to the contract."
      },
      "receiveDonations()": {
        "notice": "This function lets the receiverAddress acquire the donations stored in the smart contract."
      },
      "setReceiver(address,string)": {
        "notice": "This function updates the receiverAddress."
      }
    }
  }
}