{
  "contractName": "DonationWarehouse",
  "abi": [
    {
      "inputs": [],
      "payable": false,
      "stateMutability": "nonpayable",
      "type": "constructor"
    },
    {
      "constant": false,
      "inputs": [
        {
          "internalType": "address",
          "name": "donationAddress",
          "type": "address"
        },
        {
          "internalType": "string",
          "name": "ipfsHash",
          "type": "string"
        }
      ],
      "name": "storeDonation",
      "outputs": [],
      "payable": false,
      "stateMutability": "nonpayable",
      "type": "function"
    },
    {
      "constant": true,
      "inputs": [
        {
          "internalType": "address",
          "name": "donationAddress",
          "type": "address"
        }
      ],
      "name": "getDonationHashByAddress",
      "outputs": [
        {
          "internalType": "string",
          "name": "",
          "type": "string"
        }
      ],
      "payable": false,
      "stateMutability": "view",
      "type": "function"
    }
  ],
  "bytecode": "0x608060405234801561001057600080fd5b506103e4806100206000396000f3fe608060405234801561001057600080fd5b50600436106100365760003560e01c80631a0eb7dd1461003b578063a79a43f5146100f8575b600080fd5b61007d6004803603602081101561005157600080fd5b81019080803573ffffffffffffffffffffffffffffffffffffffff1690602001909291905050506101d3565b6040518080602001828103825283818151815260200191508051906020019080838360005b838110156100bd5780820151818401526020810190506100a2565b50505050905090810190601f1680156100ea5780820380516001836020036101000a031916815260200191505b509250505060405180910390f35b6101d16004803603604081101561010e57600080fd5b81019080803573ffffffffffffffffffffffffffffffffffffffff1690602001909291908035906020019064010000000081111561014b57600080fd5b82018360208201111561015d57600080fd5b8035906020019184600183028401116401000000008311171561017f57600080fd5b91908080601f016020809104026020016040519081016040528093929190818152602001838380828437600081840152601f19601f8201169050808301925050505050505091929192905050506102b3565b005b60606000808373ffffffffffffffffffffffffffffffffffffffff1673ffffffffffffffffffffffffffffffffffffffff1681526020019081526020016000208054600181600116156101000203166002900480601f0160208091040260200160405190810160405280929190818152602001828054600181600116156101000203166002900480156102a75780601f1061027c576101008083540402835291602001916102a7565b820191906000526020600020905b81548152906001019060200180831161028a57829003601f168201915b50505050509050919050565b806000808473ffffffffffffffffffffffffffffffffffffffff1673ffffffffffffffffffffffffffffffffffffffff168152602001908152602001600020908051906020019061030592919061030a565b505050565b828054600181600116156101000203166002900490600052602060002090601f016020900481019282601f1061034b57805160ff1916838001178555610379565b82800160010185558215610379579182015b8281111561037857825182559160200191906001019061035d565b5b509050610386919061038a565b5090565b6103ac91905b808211156103a8576000816000905550600101610390565b5090565b9056fea265627a7a72315820dfad1958955388c9c79509c44cfae3447963a3453db0b8fd629ebd76a1bdb32664736f6c63430005100032",
  "source": "/**\r\n * This smart contract allows users to donate ether through donate(). \r\n * The receiving address of the donations is set to message sender\r\n * when the contract is deployed. Only the receiving address can\r\n * choose to accept donations through receiveDonations() or change\r\n * the current receivng address. Once donations are received, the\r\n * contract is made inactive.\r\n*/\r\n\r\npragma solidity ^0.5.16;\r\n\r\ncontract DonationSystem {\r\n    \r\n    uint constant public ethConverter = 1000000000000000000;\r\n    address payable private receiverAddress;\r\n    string public receiverName;\r\n    uint public totalDonations;\r\n    bool public donationsReceived;\r\n\r\n    constructor() public {\r\n        receiverAddress = msg.sender;\r\n        receiverName = \"Contract Creator\";\r\n        totalDonations = 0;\r\n        donationsReceived = false;\r\n    }\r\n\r\n    modifier active {\r\n        require(!donationsReceived, \"Error: The donation contract is inactive. Please deploy a new donation request.\");\r\n        _;\r\n    }\r\n    \r\n    modifier isReceiver {\r\n        require(msg.sender == receiverAddress, \"Error: Only the receiver may initiate donation receivance.\");\r\n        _;\r\n    }\r\n    \r\n    modifier isNotReceiver {\r\n        require(msg.sender != receiverAddress, \"Error: The receiver may not donate to the contract.\");\r\n        _;\r\n    }\r\n\r\n    function () external payable {}\r\n\r\n    /**\r\n     * This function updates the receiverAddress.\r\n    */\r\n    function setReceiver(address payable  _receiverAddress, string memory _receiverName) public active {\r\n        require(msg.sender == receiverAddress, \"Error: You must be the current receiver to set the receiving address.\");\r\n        receiverAddress = _receiverAddress;\r\n        receiverName = _receiverName;\r\n    }\r\n    \r\n    /**\r\n     * This function allows users to donate ether to the contract.\r\n    */\r\n    function donate(uint amount) public payable active isNotReceiver{\r\n        \r\n        address(this).transfer(amount * ethConverter);\r\n        totalDonations += msg.value;\r\n    }\r\n    \r\n    /**\r\n     * This function lets the receiverAddress acquire the donations stored in the smart contract.\r\n    */\r\n    function receiveDonations() public payable active isReceiver {\r\n        receiverAddress.transfer(address(this).balance);\r\n        donationsReceived = true;\r\n    }\r\n}\r\n\r\ncontract DonationWarehouse {\r\n    mapping (address => string) private donationHashes;\r\n    \r\n    constructor() public { }\r\n    \r\n    function storeDonation(address donationAddress, string memory ipfsHash) public {\r\n        donationHashes[donationAddress] = ipfsHash;\r\n    }\r\n    \r\n    function getDonationHashByAddress(address donationAddress) public view returns (string memory) {\r\n        return donationHashes[donationAddress];\r\n    }\r\n}",
  "sourcePath": "C:/Users/rossb/Documents/EthDonator/Ethereum-Donator/Donator/src/contracts/DonationSystem.sol",
  "compiler": {
    "name": "solc",
    "version": "0.5.16+commit.9c3226ce.Emscripten.clang"
  },
  "schemaVersion": "3.4.1",
  "updatedAt": "2021-07-17T20:44:52.653Z",
  "devdoc": {
    "methods": {}
  },
  "userdoc": {
    "methods": {}
  }
}