{
  "contractName": "DonationRequest",
  "abi": [
    {
      "inputs": [],
      "payable": false,
      "stateMutability": "nonpayable",
      "type": "constructor"
    },
    {
      "payable": true,
      "stateMutability": "payable",
      "type": "fallback"
    },
    {
      "constant": true,
      "inputs": [],
      "name": "donationsReceived",
      "outputs": [
        {
          "internalType": "bool",
          "name": "",
          "type": "bool"
        }
      ],
      "payable": false,
      "stateMutability": "view",
      "type": "function"
    },
    {
      "constant": true,
      "inputs": [],
      "name": "ethConverter",
      "outputs": [
        {
          "internalType": "uint256",
          "name": "",
          "type": "uint256"
        }
      ],
      "payable": false,
      "stateMutability": "view",
      "type": "function"
    },
    {
      "constant": true,
      "inputs": [],
      "name": "receiverName",
      "outputs": [
        {
          "internalType": "string",
          "name": "",
          "type": "string"
        }
      ],
      "payable": false,
      "stateMutability": "view",
      "type": "function"
    },
    {
      "constant": true,
      "inputs": [],
      "name": "totalDonations",
      "outputs": [
        {
          "internalType": "uint256",
          "name": "",
          "type": "uint256"
        }
      ],
      "payable": false,
      "stateMutability": "view",
      "type": "function"
    },
    {
      "constant": false,
      "inputs": [
        {
          "internalType": "address payable",
          "name": "_receiverAddress",
          "type": "address"
        },
        {
          "internalType": "string",
          "name": "_receiverName",
          "type": "string"
        }
      ],
      "name": "setReceiver",
      "outputs": [],
      "payable": false,
      "stateMutability": "nonpayable",
      "type": "function"
    },
    {
      "constant": false,
      "inputs": [
        {
          "internalType": "uint256",
          "name": "amount",
          "type": "uint256"
        }
      ],
      "name": "donate",
      "outputs": [],
      "payable": true,
      "stateMutability": "payable",
      "type": "function"
    },
    {
      "constant": false,
      "inputs": [],
      "name": "receiveDonations",
      "outputs": [],
      "payable": true,
      "stateMutability": "payable",
      "type": "function"
    }
  ],
  "bytecode": "0x608060405234801561001057600080fd5b50336000806101000a81548173ffffffffffffffffffffffffffffffffffffffff021916908373ffffffffffffffffffffffffffffffffffffffff1602179055506040518060400160405280601081526020017f436f6e74726163742043726561746f72000000000000000000000000000000008152506001908051906020019061009c9291906100c5565b5060006002819055506000600360006101000a81548160ff02191690831515021790555061016a565b828054600181600116156101000203166002900490600052602060002090601f016020900481019282601f1061010657805160ff1916838001178555610134565b82800160010185558215610134579182015b82811115610133578251825591602001919060010190610118565b5b5090506101419190610145565b5090565b61016791905b8082111561016357600081600090555060010161014b565b5090565b90565b6109c2806101796000396000f3fe6080604052600436106100705760003560e01c8063de2ed8931161004e578063de2ed89314610215578063df1c526f14610240578063f14faf6f1461024a578063f676f43d1461027857610070565b80632259a96f14610072578063778c3e531461015a5780638dd7f0fc146101ea575b005b34801561007e57600080fd5b506101586004803603604081101561009557600080fd5b81019080803573ffffffffffffffffffffffffffffffffffffffff169060200190929190803590602001906401000000008111156100d257600080fd5b8201836020820111156100e457600080fd5b8035906020019184600183028401116401000000008311171561010657600080fd5b91908080601f016020809104026020016040519081016040528093929190818152602001838380828437600081840152601f19601f8201169050808301925050505050505091929192905050506102a7565b005b34801561016657600080fd5b5061016f61040d565b6040518080602001828103825283818151815260200191508051906020019080838360005b838110156101af578082015181840152602081019050610194565b50505050905090810190601f1680156101dc5780820380516001836020036101000a031916815260200191505b509250505060405180910390f35b3480156101f657600080fd5b506101ff6104ab565b6040518082815260200191505060405180910390f35b34801561022157600080fd5b5061022a6104b7565b6040518082815260200191505060405180910390f35b6102486104bd565b005b6102766004803603602081101561026057600080fd5b8101908080359060200190929190505050610664565b005b34801561028457600080fd5b5061028d6107d4565b604051808215151515815260200191505060405180910390f35b600360009054906101000a900460ff161561030d576040517f08c379a000000000000000000000000000000000000000000000000000000000815260040180806020018281038252604f81526020018061090c604f913960600191505060405180910390fd5b6000809054906101000a900473ffffffffffffffffffffffffffffffffffffffff1673ffffffffffffffffffffffffffffffffffffffff163373ffffffffffffffffffffffffffffffffffffffff16146103b2576040517f08c379a000000000000000000000000000000000000000000000000000000000815260040180806020018281038252604581526020018061088d6045913960600191505060405180910390fd5b816000806101000a81548173ffffffffffffffffffffffffffffffffffffffff021916908373ffffffffffffffffffffffffffffffffffffffff16021790555080600190805190602001906104089291906107e7565b505050565b60018054600181600116156101000203166002900480601f0160208091040260200160405190810160405280929190818152602001828054600181600116156101000203166002900480156104a35780601f10610478576101008083540402835291602001916104a3565b820191906000526020600020905b81548152906001019060200180831161048657829003601f168201915b505050505081565b670de0b6b3a764000081565b60025481565b600360009054906101000a900460ff1615610523576040517f08c379a000000000000000000000000000000000000000000000000000000000815260040180806020018281038252604f81526020018061090c604f913960600191505060405180910390fd5b6000809054906101000a900473ffffffffffffffffffffffffffffffffffffffff1673ffffffffffffffffffffffffffffffffffffffff163373ffffffffffffffffffffffffffffffffffffffff16146105c8576040517f08c379a000000000000000000000000000000000000000000000000000000000815260040180806020018281038252603a8152602001806108d2603a913960400191505060405180910390fd5b6000809054906101000a900473ffffffffffffffffffffffffffffffffffffffff1673ffffffffffffffffffffffffffffffffffffffff166108fc3073ffffffffffffffffffffffffffffffffffffffff16319081150290604051600060405180830381858888f19350505050158015610646573d6000803e3d6000fd5b506001600360006101000a81548160ff021916908315150217905550565b600360009054906101000a900460ff16156106ca576040517f08c379a000000000000000000000000000000000000000000000000000000000815260040180806020018281038252604f81526020018061090c604f913960600191505060405180910390fd5b6000809054906101000a900473ffffffffffffffffffffffffffffffffffffffff1673ffffffffffffffffffffffffffffffffffffffff163373ffffffffffffffffffffffffffffffffffffffff161415610770576040517f08c379a000000000000000000000000000000000000000000000000000000000815260040180806020018281038252603381526020018061095b6033913960400191505060405180910390fd5b3073ffffffffffffffffffffffffffffffffffffffff166108fc670de0b6b3a764000083029081150290604051600060405180830381858888f193505050501580156107c0573d6000803e3d6000fd5b503460026000828254019250508190555050565b600360009054906101000a900460ff1681565b828054600181600116156101000203166002900490600052602060002090601f016020900481019282601f1061082857805160ff1916838001178555610856565b82800160010185558215610856579182015b8281111561085557825182559160200191906001019061083a565b5b5090506108639190610867565b5090565b61088991905b8082111561088557600081600090555060010161086d565b5090565b9056fe4572726f723a20596f75206d757374206265207468652063757272656e7420726563656976657220746f207365742074686520726563656976696e6720616464726573732e4572726f723a204f6e6c7920746865207265636569766572206d617920696e69746961746520646f6e6174696f6e20726563656976616e63652e4572726f723a2054686520646f6e6174696f6e20636f6e747261637420697320696e6163746976652e20506c65617365206465706c6f792061206e657720646f6e6174696f6e20726571756573742e4572726f723a20546865207265636569766572206d6179206e6f7420646f6e61746520746f2074686520636f6e74726163742ea265627a7a72315820882e066a9ec2b4374947c285f8656dabb5b803f1ae6808961f5c570bd90dfdc764736f6c63430005100032",
  "source": "/**\r\n * This smart contract allows users to donate ether through donate(). \r\n * The receiving address of the donations is set to message sender\r\n * when the contract is deployed. Only the receiving address can\r\n * choose to accept donations through receiveDonations() or change\r\n * the current receivng address. Once donations are received, the\r\n * contract is made inactive.\r\n*/\r\n\r\npragma solidity ^0.5.16;\r\n\r\ncontract DonationRequest {\r\n    uint constant public ethConverter = 1000000000000000000;\r\n    address payable private receiverAddress;\r\n    string public receiverName;\r\n    uint public totalDonations;\r\n    bool public donationsReceived;\r\n\r\n    constructor() public {\r\n        receiverAddress = msg.sender;\r\n        receiverName = \"Contract Creator\";\r\n        totalDonations = 0;\r\n        donationsReceived = false;\r\n    }\r\n\r\n    modifier active {\r\n        require(!donationsReceived, \"Error: The donation contract is inactive. Please deploy a new donation request.\");\r\n        _;\r\n    }\r\n    \r\n    modifier isReceiver {\r\n        require(msg.sender == receiverAddress, \"Error: Only the receiver may initiate donation receivance.\");\r\n        _;\r\n    }\r\n    \r\n    modifier isNotReceiver {\r\n        require(msg.sender != receiverAddress, \"Error: The receiver may not donate to the contract.\");\r\n        _;\r\n    }\r\n\r\n    function () external payable {}\r\n\r\n    /**\r\n     * This function updates the receiverAddress.\r\n    */\r\n    function setReceiver(address payable  _receiverAddress, string memory _receiverName) public active {\r\n        require(msg.sender == receiverAddress, \"Error: You must be the current receiver to set the receiving address.\");\r\n        receiverAddress = _receiverAddress;\r\n        receiverName = _receiverName;\r\n    }\r\n    \r\n    /**\r\n     * This function allows users to donate ether to the contract.\r\n    */\r\n    function donate(uint amount) public payable active isNotReceiver{\r\n        \r\n        address(this).transfer(amount * ethConverter);\r\n        totalDonations += msg.value;\r\n    }\r\n    \r\n    /**\r\n     * This function lets the receiverAddress acquire the donations stored in the smart contract.\r\n    */\r\n    function receiveDonations() public payable active isReceiver {\r\n        receiverAddress.transfer(address(this).balance);\r\n        donationsReceived = true;\r\n    }\r\n}",
  "sourcePath": "C:/Users/rossb/Documents/EthDonator/Ethereum-Donator/Donator/src/contracts/DonationRequest.sol",
  "compiler": {
    "name": "solc",
    "version": "0.5.16+commit.9c3226ce.Emscripten.clang"
  },
  "schemaVersion": "3.4.1",
  "updatedAt": "2021-07-08T13:38:18.876Z",
  "networkType": "ethereum",
  "devdoc": {
    "methods": {}
  },
  "userdoc": {
    "methods": {
      "donate(uint256)": {
        "notice": "This function allows users to donate ether to the contract."
      },
      "receiveDonations()": {
        "notice": "This function lets the receiverAddress acquire the donations stored in the smart contract."
      },
      "setReceiver(address,string)": {
        "notice": "This function updates the receiverAddress."
      }
    }
  }
}