{
  "contractName": "DonationRequest",
  "abi": [
    {
      "inputs": [],
      "payable": false,
      "stateMutability": "nonpayable",
      "type": "constructor"
    },
    {
      "payable": true,
      "stateMutability": "payable",
      "type": "fallback"
    },
    {
      "constant": true,
      "inputs": [],
      "name": "donationsReceived",
      "outputs": [
        {
          "internalType": "bool",
          "name": "",
          "type": "bool"
        }
      ],
      "payable": false,
      "stateMutability": "view",
      "type": "function"
    },
    {
      "constant": true,
      "inputs": [],
      "name": "receiverName",
      "outputs": [
        {
          "internalType": "string",
          "name": "",
          "type": "string"
        }
      ],
      "payable": false,
      "stateMutability": "view",
      "type": "function"
    },
    {
      "constant": true,
      "inputs": [],
      "name": "totalDonations",
      "outputs": [
        {
          "internalType": "uint256",
          "name": "",
          "type": "uint256"
        }
      ],
      "payable": false,
      "stateMutability": "view",
      "type": "function"
    },
    {
      "constant": false,
      "inputs": [
        {
          "internalType": "address payable",
          "name": "_receiverAddress",
          "type": "address"
        },
        {
          "internalType": "string",
          "name": "_receiverName",
          "type": "string"
        }
      ],
      "name": "setReceiver",
      "outputs": [],
      "payable": false,
      "stateMutability": "nonpayable",
      "type": "function"
    },
    {
      "constant": false,
      "inputs": [],
      "name": "donate",
      "outputs": [],
      "payable": true,
      "stateMutability": "payable",
      "type": "function"
    },
    {
      "constant": false,
      "inputs": [],
      "name": "receiveDonations",
      "outputs": [],
      "payable": true,
      "stateMutability": "payable",
      "type": "function"
    }
  ],
  "bytecode": "0x608060405234801561001057600080fd5b50336000806101000a81548173ffffffffffffffffffffffffffffffffffffffff021916908373ffffffffffffffffffffffffffffffffffffffff1602179055506040518060400160405280601081526020017f436f6e74726163742043726561746f72000000000000000000000000000000008152506001908051906020019061009c9291906100c5565b5060006002819055506000600360006101000a81548160ff02191690831515021790555061016a565b828054600181600116156101000203166002900490600052602060002090601f016020900481019282601f1061010657805160ff1916838001178555610134565b82800160010185558215610134579182015b82811115610133578251825591602001919060010190610118565b5b5090506101419190610145565b5090565b61016791905b8082111561016357600081600090555060010161014b565b5090565b90565b6106bb806101796000396000f3fe6080604052600436106100555760003560e01c80632259a96f14610057578063778c3e531461013f578063de2ed893146101cf578063df1c526f146101fa578063ed88c68e14610204578063f676f43d1461020e575b005b34801561006357600080fd5b5061013d6004803603604081101561007a57600080fd5b81019080803573ffffffffffffffffffffffffffffffffffffffff169060200190929190803590602001906401000000008111156100b757600080fd5b8201836020820111156100c957600080fd5b803590602001918460018302840111640100000000831117156100eb57600080fd5b91908080601f016020809104026020016040519081016040528093929190818152602001838380828437600081840152601f19601f82011690508083019250505050505050919291929050505061023d565b005b34801561014b57600080fd5b506101546103a2565b6040518080602001828103825283818151815260200191508051906020019080838360005b83811015610194578082015181840152602081019050610179565b50505050905090810190601f1680156101c15780820380516001836020036101000a031916815260200191505b509250505060405180910390f35b3480156101db57600080fd5b506101e4610440565b6040518082815260200191505060405180910390f35b610202610446565b005b61020c6104d7565b005b34801561021a57600080fd5b5061022361053a565b604051808215151515815260200191505060405180910390f35b600360009054906101000a900460ff166102a2576040517f08c379a000000000000000000000000000000000000000000000000000000000815260040180806020018281038252604f815260200180610638604f913960600191505060405180910390fd5b6000809054906101000a900473ffffffffffffffffffffffffffffffffffffffff1673ffffffffffffffffffffffffffffffffffffffff163373ffffffffffffffffffffffffffffffffffffffff1614610347576040517f08c379a00000000000000000000000000000000000000000000000000000000081526004018080602001828103825260458152602001806105f36045913960600191505060405180910390fd5b816000806101000a81548173ffffffffffffffffffffffffffffffffffffffff021916908373ffffffffffffffffffffffffffffffffffffffff160217905550806001908051906020019061039d92919061054d565b505050565b60018054600181600116156101000203166002900480601f0160208091040260200160405190810160405280929190818152602001828054600181600116156101000203166002900480156104385780601f1061040d57610100808354040283529160200191610438565b820191906000526020600020905b81548152906001019060200180831161041b57829003601f168201915b505050505081565b60025481565b6000809054906101000a900473ffffffffffffffffffffffffffffffffffffffff1673ffffffffffffffffffffffffffffffffffffffff166108fc670de0b6b3a7640000600254029081150290604051600060405180830381858888f193505050501580156104b9573d6000803e3d6000fd5b506001600360006101000a81548160ff021916908315150217905550565b3073ffffffffffffffffffffffffffffffffffffffff166108fc670de0b6b3a764000034029081150290604051600060405180830381858888f19350505050158015610527573d6000803e3d6000fd5b5034600260008282540192505081905550565b600360009054906101000a900460ff1681565b828054600181600116156101000203166002900490600052602060002090601f016020900481019282601f1061058e57805160ff19168380011785556105bc565b828001600101855582156105bc579182015b828111156105bb5782518255916020019190600101906105a0565b5b5090506105c991906105cd565b5090565b6105ef91905b808211156105eb5760008160009055506001016105d3565b5090565b9056fe4572726f723a20596f75206d757374206265207468652063757272656e7420726563656976657220746f207365742074686520726563656976696e6720616464726573732e4572726f723a2054686520646f6e6174696f6e20636f6e747261637420697320696e6163746976652e20506c65617365206465706c6f792061206e657720646f6e6174696f6e20726571756573742ea265627a7a72315820ecdbd1cff26b95082e9948e529f7bd60049ac6b347b4e8c2d7ee0fb78f33fad564736f6c63430005100032",
  "source": "/**\r\n * This smart contract allows users to donate ether through donate(). \r\n * The receiving address of the donations is set to message sender\r\n * when the contract is deployed. Only the receiving address can\r\n * choose to accept donations through receiveDonations() or change\r\n * the current receivng address. Once donations are received, the\r\n * contract is made inactive.\r\n*/\r\n\r\npragma solidity ^0.5.16;\r\n\r\ncontract DonationRequest {\r\n    address payable private receiverAddress;\r\n    string public receiverName;\r\n    uint public totalDonations;\r\n    bool public donationsReceived;\r\n\r\n    constructor() public {\r\n        receiverAddress = msg.sender;\r\n        receiverName = \"Contract Creator\";\r\n        totalDonations = 0;\r\n        donationsReceived = false;\r\n    }\r\n\r\n    function () external payable {}\r\n\r\n    /**\r\n     * This function updates the receiverAddress.\r\n    */\r\n    function setReceiver(address payable  _receiverAddress, string memory _receiverName) public {\r\n        require(donationsReceived, \"Error: The donation contract is inactive. Please deploy a new donation request.\");\r\n        require(msg.sender == receiverAddress, \"Error: You must be the current receiver to set the receiving address.\");\r\n        receiverAddress = _receiverAddress;\r\n        receiverName = _receiverName;\r\n    }\r\n    \r\n    /**\r\n     * This function allows users to donate ether to the contract.\r\n    */\r\n    function donate() public payable {\r\n        address(this).transfer(msg.value * 1000000000000000000);\r\n        totalDonations += msg.value;\r\n    }\r\n    \r\n    /**\r\n     * This function lets the receiverAddress acquire the donations stored in the smart contract.\r\n    */\r\n    function receiveDonations() public payable {\r\n        receiverAddress.transfer(totalDonations * 1000000000000000000);\r\n        donationsReceived = true;\r\n    }\r\n}",
  "sourcePath": "C:/Users/rossb/Documents/EthDonator/Ethereum-Donator/Donator/src/contracts/DonationRequest.sol",
  "compiler": {
    "name": "solc",
    "version": "0.5.16+commit.9c3226ce.Emscripten.clang"
  },
  "schemaVersion": "3.4.1",
  "updatedAt": "2021-07-04T19:28:25.555Z",
  "devdoc": {
    "methods": {}
  },
  "userdoc": {
    "methods": {
      "donate()": {
        "notice": "This function allows users to donate ether to the contract."
      },
      "receiveDonations()": {
        "notice": "This function lets the receiverAddress acquire the donations stored in the smart contract."
      },
      "setReceiver(address,string)": {
        "notice": "This function updates the receiverAddress."
      }
    }
  }
}