{
  "contractName": "Donator",
  "abi": [
    {
      "inputs": [],
      "payable": false,
      "stateMutability": "nonpayable",
      "type": "constructor"
    },
    {
      "payable": true,
      "stateMutability": "payable",
      "type": "fallback"
    },
    {
      "constant": true,
      "inputs": [],
      "name": "minimumDonation",
      "outputs": [
        {
          "internalType": "uint256",
          "name": "",
          "type": "uint256"
        }
      ],
      "payable": false,
      "stateMutability": "view",
      "type": "function"
    },
    {
      "constant": true,
      "inputs": [],
      "name": "receiverName",
      "outputs": [
        {
          "internalType": "string",
          "name": "",
          "type": "string"
        }
      ],
      "payable": false,
      "stateMutability": "view",
      "type": "function"
    },
    {
      "constant": true,
      "inputs": [],
      "name": "totalDonations",
      "outputs": [
        {
          "internalType": "uint256",
          "name": "",
          "type": "uint256"
        }
      ],
      "payable": false,
      "stateMutability": "view",
      "type": "function"
    },
    {
      "constant": false,
      "inputs": [
        {
          "internalType": "address payable",
          "name": "_receiverAddress",
          "type": "address"
        },
        {
          "internalType": "string",
          "name": "_receiverName",
          "type": "string"
        }
      ],
      "name": "setReceiver",
      "outputs": [],
      "payable": false,
      "stateMutability": "nonpayable",
      "type": "function"
    },
    {
      "constant": false,
      "inputs": [],
      "name": "donate",
      "outputs": [],
      "payable": true,
      "stateMutability": "payable",
      "type": "function"
    }
  ],
  "bytecode": "0x608060405234801561001057600080fd5b50336000806101000a81548173ffffffffffffffffffffffffffffffffffffffff021916908373ffffffffffffffffffffffffffffffffffffffff1602179055506040518060400160405280601081526020017f436f6e74726163742043726561746f72000000000000000000000000000000008152506001908051906020019061009c9291906100b2565b5060006002819055506001600381905550610157565b828054600181600116156101000203166002900490600052602060002090601f016020900481019282601f106100f357805160ff1916838001178555610121565b82800160010185558215610121579182015b82811115610120578251825591602001919060010190610105565b5b50905061012e9190610132565b5090565b61015491905b80821115610150576000816000905550600101610138565b5090565b90565b610571806101666000396000f3fe60806040526004361061004a5760003560e01c80632259a96f1461004c578063778c3e531461013457806396d8f4f3146101c4578063de2ed893146101ef578063ed88c68e1461021a575b005b34801561005857600080fd5b506101326004803603604081101561006f57600080fd5b81019080803573ffffffffffffffffffffffffffffffffffffffff169060200190929190803590602001906401000000008111156100ac57600080fd5b8201836020820111156100be57600080fd5b803590602001918460018302840111640100000000831117156100e057600080fd5b91908080601f016020809104026020016040519081016040528093929190818152602001838380828437600081840152601f19601f820116905080830192505050505050509192919290505050610224565b005b34801561014057600080fd5b50610149610324565b6040518080602001828103825283818151815260200191508051906020019080838360005b8381101561018957808201518184015260208101905061016e565b50505050905090810190601f1680156101b65780820380516001836020036101000a031916815260200191505b509250505060405180910390f35b3480156101d057600080fd5b506101d96103c2565b6040518082815260200191505060405180910390f35b3480156101fb57600080fd5b506102046103c8565b6040518082815260200191505060405180910390f35b6102226103ce565b005b6000809054906101000a900473ffffffffffffffffffffffffffffffffffffffff1673ffffffffffffffffffffffffffffffffffffffff163373ffffffffffffffffffffffffffffffffffffffff16146102c9576040517f08c379a00000000000000000000000000000000000000000000000000000000081526004018080602001828103825260458152602001806104f86045913960600191505060405180910390fd5b816000806101000a81548173ffffffffffffffffffffffffffffffffffffffff021916908373ffffffffffffffffffffffffffffffffffffffff160217905550806001908051906020019061031f929190610452565b505050565b60018054600181600116156101000203166002900480601f0160208091040260200160405190810160405280929190818152602001828054600181600116156101000203166002900480156103ba5780601f1061038f576101008083540402835291602001916103ba565b820191906000526020600020905b81548152906001019060200180831161039d57829003601f168201915b505050505081565b60035481565b60025481565b6000809054906101000a900473ffffffffffffffffffffffffffffffffffffffff1673ffffffffffffffffffffffffffffffffffffffff166108fc670de0b6b3a764000034029081150290604051600060405180830381858888f1935050505015801561043f573d6000803e3d6000fd5b5034600260008282540192505081905550565b828054600181600116156101000203166002900490600052602060002090601f016020900481019282601f1061049357805160ff19168380011785556104c1565b828001600101855582156104c1579182015b828111156104c05782518255916020019190600101906104a5565b5b5090506104ce91906104d2565b5090565b6104f491905b808211156104f05760008160009055506001016104d8565b5090565b9056fe4572726f723a20596f75206d757374206265207468652063757272656e7420726563656976657220746f207365742074686520726563656976696e6720616464726573732ea265627a7a723158208a992cf66cfc3c9184fa70131ab95746b727afa86f962a9a751dfc1b5fba220564736f6c63430005100032",
  "source": "/**\r\n * This smart contract allows addresses to donate ether to a designated address.\r\n * The receiving address is changeable, but only the receiving address can\r\n * choose to accept donations.\r\n*/\r\n\r\npragma solidity ^0.5.16;\r\n\r\ncontract Donator {\r\n    address payable receiverAddress;\r\n    string public receiverName;\r\n    uint public totalDonations;\r\n    uint public minimumDonation;\r\n\r\n    constructor() public {\r\n        receiverAddress = msg.sender;\r\n        receiverName = \"Contract Creator\";\r\n        totalDonations = 0;\r\n        minimumDonation = 1;\r\n    }\r\n\r\n    function () external payable {}\r\n\r\n    function setReceiver(address payable  _receiverAddress, string memory _receiverName) public {\r\n        require(msg.sender == receiverAddress, \"Error: You must be the current receiver to set the receiving address.\");\r\n        receiverAddress = _receiverAddress;\r\n        receiverName = _receiverName;\r\n    }\r\n    \r\n    function donate() public payable {\r\n        receiverAddress.transfer(msg.value * 1000000000000000000);\r\n        totalDonations += msg.value;\r\n    }\r\n}",
  "sourcePath": "C:/Donator React/Donator/src/contracts/Donator.sol",
  "compiler": {
    "name": "solc",
    "version": "0.5.16+commit.9c3226ce.Emscripten.clang"
  },
  "schemaVersion": "3.4.1",
  "updatedAt": "2021-07-04T19:30:42.443Z",
  "networkType": "ethereum",
  "devdoc": {
    "methods": {}
  },
  "userdoc": {
    "methods": {}
  }
}